{
  "contractName": "MyWallet",
  "abi": [
    {
      "constant": false,
      "inputs": [
        {
          "name": "_to",
          "type": "address"
        },
        {
          "name": "_value",
          "type": "uint256"
        },
        {
          "name": "_reason",
          "type": "string"
        }
      ],
      "name": "spendMoneyOn",
      "outputs": [
        {
          "name": "",
          "type": "uint256"
        }
      ],
      "payable": false,
      "stateMutability": "nonpayable",
      "type": "function"
    },
    {
      "constant": false,
      "inputs": [],
      "name": "kill",
      "outputs": [],
      "payable": false,
      "stateMutability": "nonpayable",
      "type": "function"
    },
    {
      "constant": false,
      "inputs": [
        {
          "name": "proposal_id",
          "type": "uint256"
        }
      ],
      "name": "confirmProposal",
      "outputs": [
        {
          "name": "",
          "type": "bool"
        }
      ],
      "payable": false,
      "stateMutability": "nonpayable",
      "type": "function"
    },
    {
      "payable": true,
      "stateMutability": "payable",
      "type": "fallback"
    },
    {
      "anonymous": false,
      "inputs": [
        {
          "indexed": false,
          "name": "_from",
          "type": "address"
        },
        {
          "indexed": false,
          "name": "_amount",
          "type": "uint256"
        }
      ],
      "name": "receivedFunds",
      "type": "event"
    },
    {
      "anonymous": false,
      "inputs": [
        {
          "indexed": true,
          "name": "_from",
          "type": "address"
        },
        {
          "indexed": true,
          "name": "_to",
          "type": "address"
        },
        {
          "indexed": false,
          "name": "_reason",
          "type": "string"
        }
      ],
      "name": "proposalReceived",
      "type": "event"
    },
    {
      "anonymous": false,
      "inputs": [
        {
          "indexed": false,
          "name": "_from",
          "type": "address"
        },
        {
          "indexed": false,
          "name": "_to",
          "type": "address"
        }
      ],
      "name": "sendMoneyPlain",
      "type": "event"
    }
  ],
  "bytecode": "0x6060604052336000806101000a81548173ffffffffffffffffffffffffffffffffffffffff021916908373ffffffffffffffffffffffffffffffffffffffff160217905550610820806100536000396000f300606060405260043610610057576000357c0100000000000000000000000000000000000000000000000000000000900463ffffffff168063192997e7146100ce57806341c0e1b514610167578063f4a4f4d21461017c575b60003411156100cc577f3f638da77ee3d49db2211092b965c9c7c2fcb68fea5e8f85986200f8776f6a1d3334604051808373ffffffffffffffffffffffffffffffffffffffff1673ffffffffffffffffffffffffffffffffffffffff1681526020018281526020019250505060405180910390a15b005b34156100d957600080fd5b610151600480803573ffffffffffffffffffffffffffffffffffffffff1690602001909190803590602001909190803590602001908201803590602001908080601f016020809104026020016040519081016040528093929190818152602001838380828437820191505050505050919050506101b7565b6040518082815260200191505060405180910390f35b341561017257600080fd5b61017a610521565b005b341561018757600080fd5b61019d60048080359060200190919050506105b2565b604051808215151515815260200191505060405180910390f35b6000803373ffffffffffffffffffffffffffffffffffffffff166000809054906101000a900473ffffffffffffffffffffffffffffffffffffffff1673ffffffffffffffffffffffffffffffffffffffff1614156102ee578473ffffffffffffffffffffffffffffffffffffffff166108fc859081150290604051600060405180830381858888f19350505050905080151561025257600080fd5b7f44f9cec4190ec013b3b048b609ddf6b119bfa55c3a6e0deb6f0b1eccb93b612b3386604051808373ffffffffffffffffffffffffffffffffffffffff1673ffffffffffffffffffffffffffffffffffffffff1681526020018273ffffffffffffffffffffffffffffffffffffffff1673ffffffffffffffffffffffffffffffffffffffff1681526020019250505060405180910390a1610518565b60016000815480929190600101919050555060a0604051908101604052803373ffffffffffffffffffffffffffffffffffffffff1681526020018673ffffffffffffffffffffffffffffffffffffffff1681526020018581526020018481526020016000151581525060026000600154815260200190815260200160002060008201518160000160006101000a81548173ffffffffffffffffffffffffffffffffffffffff021916908373ffffffffffffffffffffffffffffffffffffffff16021790555060208201518160010160006101000a81548173ffffffffffffffffffffffffffffffffffffffff021916908373ffffffffffffffffffffffffffffffffffffffff16021790555060408201518160020155606082015181600301908051906020019061042092919061074f565b5060808201518160040160006101000a81548160ff0219169083151502179055509050508473ffffffffffffffffffffffffffffffffffffffff163373ffffffffffffffffffffffffffffffffffffffff167f24bb5c74895c3fd8414e0d433edece1a9f0833ae289514c568d306738c5f1a77856040518080602001828103825283818151815260200191508051906020019080838360005b838110156104d45780820151818401526020810190506104b9565b50505050905090810190601f1680156105015780820380516001836020036101000a031916815260200191505b509250505060405180910390a36001549150610519565b5b509392505050565b6000809054906101000a900473ffffffffffffffffffffffffffffffffffffffff1673ffffffffffffffffffffffffffffffffffffffff163373ffffffffffffffffffffffffffffffffffffffff1614156105b0576000809054906101000a900473ffffffffffffffffffffffffffffffffffffffff1673ffffffffffffffffffffffffffffffffffffffff16ff5b565b6000806000809054906101000a900473ffffffffffffffffffffffffffffffffffffffff1673ffffffffffffffffffffffffffffffffffffffff163373ffffffffffffffffffffffffffffffffffffffff16141561074957600260008481526020019081526020016000209050600073ffffffffffffffffffffffffffffffffffffffff168160000160009054906101000a900473ffffffffffffffffffffffffffffffffffffffff1673ffffffffffffffffffffffffffffffffffffffff1614151561074757600115158160040160009054906101000a900460ff1615151415156107465760018160040160006101000a81548160ff0219169083151502179055508060010160009054906101000a900473ffffffffffffffffffffffffffffffffffffffff1673ffffffffffffffffffffffffffffffffffffffff166108fc82600201549081150290604051600060405180830381858888f19350505050156107205760019150610748565b60008160040160006101000a81548160ff02191690831515021790555060009150610748565b5b5b5b50919050565b828054600181600116156101000203166002900490600052602060002090601f016020900481019282601f1061079057805160ff19168380011785556107be565b828001600101855582156107be579182015b828111156107bd5782518255916020019190600101906107a2565b5b5090506107cb91906107cf565b5090565b6107f191905b808211156107ed5760008160009055506001016107d5565b5090565b905600a165627a7a72305820e7668a7b4af8086f635611fc3d320a608c31299077ea66efacdc3026144382850029",
  "source": "pragma solidity ^0.4.0;\n\nimport \"./mortal.sol\";\n\ncontract MyWallet is mortal {\n    event receivedFunds(address _from, uint256 _amount);\n    event proposalReceived(address indexed _from, address indexed _to, string _reason);\n    event sendMoneyPlain(address _from, address _to);\n    struct Proposal {\n        address _from;\n        address _to;\n        uint256 _value;\n        string _reason;\n        bool sent;\n    }\n    \n    uint proposal_counter;\n    \n    mapping(uint => Proposal) m_proposals;\n\n    function spendMoneyOn(address _to, uint256 _value, string _reason) returns (uint256) {\n        if(owner == msg.sender) {\n            bool sent = _to.send(_value);\n            if(!sent) {\n                throw;\n            } else {\n                sendMoneyPlain(msg.sender, _to);\n                }\n        } else {\n            proposal_counter++;\n            m_proposals[proposal_counter] = Proposal(msg.sender, _to, _value, _reason, false);\n            proposalReceived(msg.sender, _to, _reason);\n            return proposal_counter;\n        }\n    }\n    \n    function confirmProposal(uint proposal_id) onlyowner returns (bool) {\n        Proposal proposal = m_proposals[proposal_id];\n        if(proposal._from != address(0)) {\n            if(proposal.sent != true) {\n                proposal.sent = true;\n                if(proposal._to.send(proposal._value)) {\n                    return true;\n                }\n                proposal.sent = false;\n                return false;\n            }\n        }\n    }\n    \n   function() payable {\n       if(msg.value > 0) {\n           receivedFunds(msg.sender, msg.value);\n       }\n   }\n}",
  "sourcePath": "/home/muhammad/Downloads/ethereumWallet/contracts/MyWallet.sol",
  "compiler": {
    "name": "solc",
    "version": "0.4.18+commit.9cf6e910.Emscripten.clang"
  },
  "schemaVersion": "1.0.1",
  "updatedAt": "2017-12-29T05:48:08.713Z"
}